{
  "contractName": "DataStore",
  "abi": [
    {
      "constant": true,
      "inputs": [
        {
          "name": "",
          "type": "address"
        }
      ],
      "name": "providers",
      "outputs": [
        {
          "name": "owner",
          "type": "address"
        },
        {
          "name": "name",
          "type": "bytes32"
        },
        {
          "name": "pubKey",
          "type": "string"
        },
        {
          "name": "isProvider",
          "type": "bool"
        }
      ],
      "payable": false,
      "stateMutability": "view",
      "type": "function"
    },
    {
      "constant": true,
      "inputs": [],
      "name": "totalData",
      "outputs": [
        {
          "name": "",
          "type": "uint256"
        }
      ],
      "payable": false,
      "stateMutability": "view",
      "type": "function"
    },
    {
      "constant": true,
      "inputs": [
        {
          "name": "",
          "type": "bytes32"
        }
      ],
      "name": "dataStore",
      "outputs": [
        {
          "name": "_id",
          "type": "bytes32"
        },
        {
          "name": "name",
          "type": "string"
        },
        {
          "name": "location",
          "type": "string"
        },
        {
          "name": "category",
          "type": "string"
        },
        {
          "name": "hashMeta",
          "type": "string"
        },
        {
          "name": "owner",
          "type": "address"
        },
        {
          "name": "digest",
          "type": "string"
        },
        {
          "name": "isDataSet",
          "type": "bool"
        }
      ],
      "payable": false,
      "stateMutability": "view",
      "type": "function"
    },
    {
      "constant": true,
      "inputs": [
        {
          "name": "_dataProviderAddress",
          "type": "address"
        }
      ],
      "name": "getDataProviderInfo",
      "outputs": [
        {
          "name": "owner",
          "type": "address"
        },
        {
          "name": "name",
          "type": "bytes32"
        },
        {
          "name": "pubKey",
          "type": "string"
        }
      ],
      "payable": false,
      "stateMutability": "view",
      "type": "function"
    },
    {
      "constant": true,
      "inputs": [],
      "name": "totalProcessors",
      "outputs": [
        {
          "name": "",
          "type": "uint256"
        }
      ],
      "payable": false,
      "stateMutability": "view",
      "type": "function"
    },
    {
      "constant": true,
      "inputs": [
        {
          "name": "_dataSetID",
          "type": "bytes32"
        }
      ],
      "name": "getDataSetInfo",
      "outputs": [
        {
          "name": "name",
          "type": "string"
        },
        {
          "name": "location",
          "type": "string"
        },
        {
          "name": "category",
          "type": "string"
        },
        {
          "name": "owner",
          "type": "address"
        },
        {
          "name": "hashMeta",
          "type": "string"
        },
        {
          "name": "digest",
          "type": "string"
        }
      ],
      "payable": false,
      "stateMutability": "view",
      "type": "function"
    },
    {
      "constant": true,
      "inputs": [
        {
          "name": "_subscriber",
          "type": "address"
        }
      ],
      "name": "getRequestInfo",
      "outputs": [
        {
          "name": "dataSetID",
          "type": "bytes32"
        },
        {
          "name": "provider",
          "type": "address"
        },
        {
          "name": "hasProof",
          "type": "bool"
        },
        {
          "name": "processed",
          "type": "bool"
        },
        {
          "name": "queryID",
          "type": "bytes32"
        },
        {
          "name": "pubKey",
          "type": "string"
        }
      ],
      "payable": false,
      "stateMutability": "view",
      "type": "function"
    },
    {
      "constant": true,
      "inputs": [
        {
          "name": "_dataProcessorAddress",
          "type": "address"
        }
      ],
      "name": "getDataProcessorInfo",
      "outputs": [
        {
          "name": "owner",
          "type": "address"
        },
        {
          "name": "name",
          "type": "bytes32"
        },
        {
          "name": "pubKey",
          "type": "string"
        }
      ],
      "payable": false,
      "stateMutability": "view",
      "type": "function"
    },
    {
      "constant": true,
      "inputs": [
        {
          "name": "",
          "type": "address"
        }
      ],
      "name": "requests",
      "outputs": [
        {
          "name": "dataSetID",
          "type": "bytes32"
        },
        {
          "name": "subscriber",
          "type": "address"
        },
        {
          "name": "provider",
          "type": "address"
        },
        {
          "name": "hasProof",
          "type": "bool"
        },
        {
          "name": "processed",
          "type": "bool"
        },
        {
          "name": "queryID",
          "type": "bytes32"
        },
        {
          "name": "pubKey",
          "type": "string"
        },
        {
          "name": "isRequest",
          "type": "bool"
        }
      ],
      "payable": false,
      "stateMutability": "view",
      "type": "function"
    },
    {
      "constant": true,
      "inputs": [],
      "name": "totalRequests",
      "outputs": [
        {
          "name": "",
          "type": "uint256"
        }
      ],
      "payable": false,
      "stateMutability": "view",
      "type": "function"
    },
    {
      "constant": true,
      "inputs": [],
      "name": "owner",
      "outputs": [
        {
          "name": "",
          "type": "address"
        }
      ],
      "payable": false,
      "stateMutability": "view",
      "type": "function"
    },
    {
      "constant": true,
      "inputs": [
        {
          "name": "",
          "type": "address"
        }
      ],
      "name": "processors",
      "outputs": [
        {
          "name": "owner",
          "type": "address"
        },
        {
          "name": "name",
          "type": "bytes32"
        },
        {
          "name": "pubKey",
          "type": "string"
        },
        {
          "name": "isProcessor",
          "type": "bool"
        }
      ],
      "payable": false,
      "stateMutability": "view",
      "type": "function"
    },
    {
      "constant": true,
      "inputs": [],
      "name": "totalProviders",
      "outputs": [
        {
          "name": "",
          "type": "uint256"
        }
      ],
      "payable": false,
      "stateMutability": "view",
      "type": "function"
    },
    {
      "constant": true,
      "inputs": [
        {
          "name": "",
          "type": "address"
        },
        {
          "name": "",
          "type": "uint256"
        }
      ],
      "name": "providerDataSets",
      "outputs": [
        {
          "name": "_id",
          "type": "bytes32"
        },
        {
          "name": "name",
          "type": "string"
        },
        {
          "name": "location",
          "type": "string"
        },
        {
          "name": "category",
          "type": "string"
        },
        {
          "name": "hashMeta",
          "type": "string"
        },
        {
          "name": "owner",
          "type": "address"
        },
        {
          "name": "digest",
          "type": "string"
        },
        {
          "name": "isDataSet",
          "type": "bool"
        }
      ],
      "payable": false,
      "stateMutability": "view",
      "type": "function"
    },
    {
      "constant": false,
      "inputs": [
        {
          "name": "newOwner",
          "type": "address"
        }
      ],
      "name": "transferOwnership",
      "outputs": [],
      "payable": false,
      "stateMutability": "nonpayable",
      "type": "function"
    },
    {
      "anonymous": false,
      "inputs": [
        {
          "indexed": false,
          "name": "_id",
          "type": "bytes32"
        },
        {
          "indexed": false,
          "name": "name",
          "type": "string"
        },
        {
          "indexed": false,
          "name": "location",
          "type": "string"
        },
        {
          "indexed": false,
          "name": "category",
          "type": "string"
        },
        {
          "indexed": false,
          "name": "hashMeta",
          "type": "string"
        },
        {
          "indexed": false,
          "name": "owner",
          "type": "address"
        },
        {
          "indexed": false,
          "name": "digest",
          "type": "string"
        }
      ],
      "name": "NewDataSet",
      "type": "event"
    },
    {
      "anonymous": false,
      "inputs": [
        {
          "indexed": false,
          "name": "_providerAddress",
          "type": "address"
        },
        {
          "indexed": false,
          "name": "name",
          "type": "bytes32"
        }
      ],
      "name": "NewProvider",
      "type": "event"
    },
    {
      "anonymous": false,
      "inputs": [
        {
          "indexed": false,
          "name": "_providerAddress",
          "type": "address"
        },
        {
          "indexed": false,
          "name": "name",
          "type": "bytes32"
        },
        {
          "indexed": false,
          "name": "pubKey",
          "type": "string"
        }
      ],
      "name": "NewProcessor",
      "type": "event"
    },
    {
      "anonymous": false,
      "inputs": [
        {
          "indexed": false,
          "name": "_dataSetID",
          "type": "bytes32"
        },
        {
          "indexed": false,
          "name": "_provider",
          "type": "address"
        },
        {
          "indexed": false,
          "name": "_subscriber",
          "type": "address"
        },
        {
          "indexed": false,
          "name": "queryID",
          "type": "bytes32"
        },
        {
          "indexed": false,
          "name": "pubKey",
          "type": "string"
        }
      ],
      "name": "NewRequest",
      "type": "event"
    },
    {
      "anonymous": false,
      "inputs": [
        {
          "indexed": false,
          "name": "_providerAddress",
          "type": "address"
        },
        {
          "indexed": false,
          "name": "_subscriber",
          "type": "address"
        },
        {
          "indexed": false,
          "name": "cipher",
          "type": "string"
        }
      ],
      "name": "Process",
      "type": "event"
    },
    {
      "anonymous": false,
      "inputs": [
        {
          "indexed": true,
          "name": "previousOwner",
          "type": "address"
        },
        {
          "indexed": true,
          "name": "newOwner",
          "type": "address"
        }
      ],
      "name": "OwnershipTransferred",
      "type": "event"
    },
    {
      "constant": false,
      "inputs": [
        {
          "name": "_id",
          "type": "bytes32"
        },
        {
          "name": "name",
          "type": "string"
        },
        {
          "name": "location",
          "type": "string"
        },
        {
          "name": "category",
          "type": "string"
        },
        {
          "name": "hashMeta",
          "type": "string"
        },
        {
          "name": "_dataOwner",
          "type": "address"
        },
        {
          "name": "digest",
          "type": "string"
        }
      ],
      "name": "registerDataSet",
      "outputs": [
        {
          "name": "success",
          "type": "bool"
        }
      ],
      "payable": false,
      "stateMutability": "nonpayable",
      "type": "function"
    },
    {
      "constant": false,
      "inputs": [
        {
          "name": "_providerAddress",
          "type": "address"
        },
        {
          "name": "name",
          "type": "bytes32"
        },
        {
          "name": "pubKey",
          "type": "string"
        }
      ],
      "name": "registerProvider",
      "outputs": [
        {
          "name": "success",
          "type": "bool"
        }
      ],
      "payable": false,
      "stateMutability": "nonpayable",
      "type": "function"
    },
    {
      "constant": false,
      "inputs": [
        {
          "name": "_processorAddress",
          "type": "address"
        },
        {
          "name": "name",
          "type": "bytes32"
        },
        {
          "name": "pubKey",
          "type": "string"
        }
      ],
      "name": "registerProcessor",
      "outputs": [
        {
          "name": "success",
          "type": "bool"
        }
      ],
      "payable": false,
      "stateMutability": "nonpayable",
      "type": "function"
    },
    {
      "constant": false,
      "inputs": [
        {
          "name": "_dataSetID",
          "type": "bytes32"
        },
        {
          "name": "_subscriber",
          "type": "address"
        },
        {
          "name": "queryID",
          "type": "bytes32"
        },
        {
          "name": "pubKey",
          "type": "string"
        }
      ],
      "name": "requestProcessing",
      "outputs": [
        {
          "name": "success",
          "type": "bool"
        }
      ],
      "payable": false,
      "stateMutability": "nonpayable",
      "type": "function"
    },
    {
      "constant": false,
      "inputs": [
        {
          "name": "_providerAddress",
          "type": "address"
        },
        {
          "name": "_subscriber",
          "type": "address"
        },
        {
          "name": "cipher",
          "type": "string"
        }
      ],
      "name": "notifyProcessor",
      "outputs": [
        {
          "name": "success",
          "type": "bool"
        }
      ],
      "payable": false,
      "stateMutability": "nonpayable",
      "type": "function"
    }
  ],
  "bytecode": "0x6060604052336000806101000a81548173ffffffffffffffffffffffffffffffffffffffff021916908373ffffffffffffffffffffffffffffffffffffffff16021790555060006001819055506000600281905550600060038190555060006004819055506134cf806100736000396000f300606060405260043610610112576000357c0100000000000000000000000000000000000000000000000000000000900463ffffffff1680630787bc271461011757806309aeaaa0146102335780631042620b146103e05780633729ea8a14610409578063401ac1cc146104bc5780634c0841c6146107ea5780634ccc948a146108de57806353050883146109075780635d6a42ba14610b8a578063628978b314610ca3578063709f65fb14610d9757806374adad1d14610e385780638aea61dc14610fac5780638da5cb5b14610fd5578063965e064a1461102a57806396616b1f146111465780639ca239e91461116f578063c24d41f914611210578063e1a15f2614611559578063f2fde38b14611607575b600080fd5b341561012257600080fd5b61014e600480803573ffffffffffffffffffffffffffffffffffffffff16906020019091905050611640565b604051808573ffffffffffffffffffffffffffffffffffffffff1673ffffffffffffffffffffffffffffffffffffffff168152602001846000191660001916815260200180602001831515151581526020018281038252848181546001816001161561010002031660029004815260200191508054600181600116156101000203166002900480156102215780601f106101f657610100808354040283529160200191610221565b820191906000526020600020905b81548152906001019060200180831161020457829003601f168201915b50509550505050505060405180910390f35b341561023e57600080fd5b6103c660048080356000191690602001909190803590602001908201803590602001908080601f0160208091040260200160405190810160405280939291908181526020018383808284378201915050505050509190803590602001908201803590602001908080601f0160208091040260200160405190810160405280939291908181526020018383808284378201915050505050509190803590602001908201803590602001908080601f0160208091040260200160405190810160405280939291908181526020018383808284378201915050505050509190803590602001908201803590602001908080601f0160208091040260200160405190810160405280939291908181526020018383808284378201915050505050509190803573ffffffffffffffffffffffffffffffffffffffff1690602001909190803590602001908201803590602001908080601f0160208091040260200160405190810160405280939291908181526020018383808284378201915050505050509190505061169c565b604051808215151515815260200191505060405180910390f35b34156103eb57600080fd5b6103f3611b59565b6040518082815260200191505060405180910390f35b341561041457600080fd5b6104a2600480803573ffffffffffffffffffffffffffffffffffffffff1690602001909190803573ffffffffffffffffffffffffffffffffffffffff1690602001909190803590602001908201803590602001908080601f01602080910402602001604051908101604052809392919081815260200183838082843782019150505050505091905050611b5f565b604051808215151515815260200191505060405180910390f35b34156104c757600080fd5b6104e1600480803560001916906020019091905050611c70565b604051808960001916600019168152602001806020018060200180602001806020018873ffffffffffffffffffffffffffffffffffffffff1673ffffffffffffffffffffffffffffffffffffffff168152602001806020018715151515815260200186810386528d8181546001816001161561010002031660029004815260200191508054600181600116156101000203166002900480156105c45780601f10610599576101008083540402835291602001916105c4565b820191906000526020600020905b8154815290600101906020018083116105a757829003601f168201915b505086810385528c8181546001816001161561010002031660029004815260200191508054600181600116156101000203166002900480156106475780601f1061061c57610100808354040283529160200191610647565b820191906000526020600020905b81548152906001019060200180831161062a57829003601f168201915b505086810384528b8181546001816001161561010002031660029004815260200191508054600181600116156101000203166002900480156106ca5780601f1061069f576101008083540402835291602001916106ca565b820191906000526020600020905b8154815290600101906020018083116106ad57829003601f168201915b505086810383528a81815460018160011615610100020316600290048152602001915080546001816001161561010002031660029004801561074d5780601f106107225761010080835404028352916020019161074d565b820191906000526020600020905b81548152906001019060200180831161073057829003601f168201915b50508681038252888181546001816001161561010002031660029004815260200191508054600181600116156101000203166002900480156107d05780601f106107a5576101008083540402835291602001916107d0565b820191906000526020600020905b8154815290600101906020018083116107b357829003601f168201915b50509d505050505050505050505050505060405180910390f35b34156107f557600080fd5b610821600480803573ffffffffffffffffffffffffffffffffffffffff16906020019091905050611ce0565b604051808473ffffffffffffffffffffffffffffffffffffffff1673ffffffffffffffffffffffffffffffffffffffff168152602001836000191660001916815260200180602001828103825283818151815260200191508051906020019080838360005b838110156108a1578082015181840152602081019050610886565b50505050905090810190601f1680156108ce5780820380516001836020036101000a031916815260200191505b5094505050505060405180910390f35b34156108e957600080fd5b6108f1611e79565b6040518082815260200191505060405180910390f35b341561091257600080fd5b61092c600480803560001916906020019091905050611e7f565b604051808060200180602001806020018773ffffffffffffffffffffffffffffffffffffffff1673ffffffffffffffffffffffffffffffffffffffff168152602001806020018060200186810386528c818151815260200191508051906020019080838360005b838110156109ae578082015181840152602081019050610993565b50505050905090810190601f1680156109db5780820380516001836020036101000a031916815260200191505b5086810385528b818151815260200191508051906020019080838360005b83811015610a145780820151818401526020810190506109f9565b50505050905090810190601f168015610a415780820380516001836020036101000a031916815260200191505b5086810384528a818151815260200191508051906020019080838360005b83811015610a7a578082015181840152602081019050610a5f565b50505050905090810190601f168015610aa75780820380516001836020036101000a031916815260200191505b50868103835288818151815260200191508051906020019080838360005b83811015610ae0578082015181840152602081019050610ac5565b50505050905090810190601f168015610b0d5780820380516001836020036101000a031916815260200191505b50868103825287818151815260200191508051906020019080838360005b83811015610b46578082015181840152602081019050610b2b565b50505050905090810190601f168015610b735780820380516001836020036101000a031916815260200191505b509b50505050505050505050505060405180910390f35b3415610b9557600080fd5b610bc1600480803573ffffffffffffffffffffffffffffffffffffffff169060200190919050506122dc565b6040518087600019166000191681526020018673ffffffffffffffffffffffffffffffffffffffff1673ffffffffffffffffffffffffffffffffffffffff1681526020018515151515815260200184151515158152602001836000191660001916815260200180602001828103825283818151815260200191508051906020019080838360005b83811015610c63578082015181840152602081019050610c48565b50505050905090810190601f168015610c905780820380516001836020036101000a031916815260200191505b5097505050505050505060405180910390f35b3415610cae57600080fd5b610cda600480803573ffffffffffffffffffffffffffffffffffffffff169060200190919050506125c2565b604051808473ffffffffffffffffffffffffffffffffffffffff1673ffffffffffffffffffffffffffffffffffffffff168152602001836000191660001916815260200180602001828103825283818151815260200191508051906020019080838360005b83811015610d5a578082015181840152602081019050610d3f565b50505050905090810190601f168015610d875780820380516001836020036101000a031916815260200191505b5094505050505060405180910390f35b3415610da257600080fd5b610e1e600480803573ffffffffffffffffffffffffffffffffffffffff169060200190919080356000191690602001909190803590602001908201803590602001908080601f016020809104026020016040519081016040528093929190818152602001838380828437820191505050505050919050506127b8565b604051808215151515815260200191505060405180910390f35b3415610e4357600080fd5b610e6f600480803573ffffffffffffffffffffffffffffffffffffffff169060200190919050506129f6565b6040518089600019166000191681526020018873ffffffffffffffffffffffffffffffffffffffff1673ffffffffffffffffffffffffffffffffffffffff1681526020018773ffffffffffffffffffffffffffffffffffffffff1673ffffffffffffffffffffffffffffffffffffffff168152602001861515151581526020018515151515815260200184600019166000191681526020018060200183151515158152602001828103825284818154600181600116156101000203166002900481526020019150805460018160011615610100020316600290048015610f965780601f10610f6b57610100808354040283529160200191610f96565b820191906000526020600020905b815481529060010190602001808311610f7957829003601f168201915b5050995050505050505050505060405180910390f35b3415610fb757600080fd5b610fbf612aa4565b6040518082815260200191505060405180910390f35b3415610fe057600080fd5b610fe8612aaa565b604051808273ffffffffffffffffffffffffffffffffffffffff1673ffffffffffffffffffffffffffffffffffffffff16815260200191505060405180910390f35b341561103557600080fd5b611061600480803573ffffffffffffffffffffffffffffffffffffffff16906020019091905050612acf565b604051808573ffffffffffffffffffffffffffffffffffffffff1673ffffffffffffffffffffffffffffffffffffffff168152602001846000191660001916815260200180602001831515151581526020018281038252848181546001816001161561010002031660029004815260200191508054600181600116156101000203166002900480156111345780601f1061110957610100808354040283529160200191611134565b820191906000526020600020905b81548152906001019060200180831161111757829003601f168201915b50509550505050505060405180910390f35b341561115157600080fd5b611159612b2b565b6040518082815260200191505060405180910390f35b341561117a57600080fd5b6111f6600480803573ffffffffffffffffffffffffffffffffffffffff169060200190919080356000191690602001909190803590602001908201803590602001908080601f01602080910402602001604051908101604052809392919081815260200183838082843782019150505050505091905050612b31565b604051808215151515815260200191505060405180910390f35b341561121b57600080fd5b611250600480803573ffffffffffffffffffffffffffffffffffffffff16906020019091908035906020019091905050612ddc565b604051808960001916600019168152602001806020018060200180602001806020018873ffffffffffffffffffffffffffffffffffffffff1673ffffffffffffffffffffffffffffffffffffffff168152602001806020018715151515815260200186810386528d8181546001816001161561010002031660029004815260200191508054600181600116156101000203166002900480156113335780601f1061130857610100808354040283529160200191611333565b820191906000526020600020905b81548152906001019060200180831161131657829003601f168201915b505086810385528c8181546001816001161561010002031660029004815260200191508054600181600116156101000203166002900480156113b65780601f1061138b576101008083540402835291602001916113b6565b820191906000526020600020905b81548152906001019060200180831161139957829003601f168201915b505086810384528b8181546001816001161561010002031660029004815260200191508054600181600116156101000203166002900480156114395780601f1061140e57610100808354040283529160200191611439565b820191906000526020600020905b81548152906001019060200180831161141c57829003601f168201915b505086810383528a8181546001816001161561010002031660029004815260200191508054600181600116156101000203166002900480156114bc5780601f10611491576101008083540402835291602001916114bc565b820191906000526020600020905b81548152906001019060200180831161149f57829003601f168201915b505086810382528881815460018160011615610100020316600290048152602001915080546001816001161561010002031660029004801561153f5780601f106115145761010080835404028352916020019161153f565b820191906000526020600020905b81548152906001019060200180831161152257829003601f168201915b50509d505050505050505050505050505060405180910390f35b341561156457600080fd5b6115ed60048080356000191690602001909190803573ffffffffffffffffffffffffffffffffffffffff169060200190919080356000191690602001909190803590602001908201803590602001908080601f01602080910402602001604051908101604052809392919081815260200183838082843782019150505050505091905050612e68565b604051808215151515815260200191505060405180910390f35b341561161257600080fd5b61163e600480803573ffffffffffffffffffffffffffffffffffffffff16906020019091905050613295565b005b60056020528060005260406000206000915090508060000160009054906101000a900473ffffffffffffffffffffffffffffffffffffffff169080600101549080600201908060030160009054906101000a900460ff16905084565b6000876000602060ff161115156116b257600080fd5b60066000826000191660001916815260200190815260200160002060070160009054906101000a900460ff161515156116ea57600080fd5b600073ffffffffffffffffffffffffffffffffffffffff168473ffffffffffffffffffffffffffffffffffffffff161415151561172657600080fd5b610100604051908101604052808a6000191681526020018981526020018881526020018781526020018681526020018573ffffffffffffffffffffffffffffffffffffffff16815260200184815260200160011515815250600660008b600019166000191681526020019081526020016000206000820151816000019060001916905560208201518160010190805190602001906117c59291906133ea565b5060408201518160020190805190602001906117e29291906133ea565b5060608201518160030190805190602001906117ff9291906133ea565b50608082015181600401908051906020019061181c9291906133ea565b5060a08201518160050160006101000a81548173ffffffffffffffffffffffffffffffffffffffff021916908373ffffffffffffffffffffffffffffffffffffffff16021790555060c08201518160060190805190602001906118809291906133ea565b5060e08201518160070160006101000a81548160ff0219169083151502179055509050506001600081548092919060010191905055507e06cfcb5c3525093e157fb8973da5bc8dbc94402156cc13f4d73eea7c694ef989898989898989604051808860001916600019168152602001806020018060200180602001806020018773ffffffffffffffffffffffffffffffffffffffff1673ffffffffffffffffffffffffffffffffffffffff1681526020018060200186810386528c818151815260200191508051906020019080838360005b8381101561196d578082015181840152602081019050611952565b50505050905090810190601f16801561199a5780820380516001836020036101000a031916815260200191505b5086810385528b818151815260200191508051906020019080838360005b838110156119d35780820151818401526020810190506119b8565b50505050905090810190601f168015611a005780820380516001836020036101000a031916815260200191505b5086810384528a818151815260200191508051906020019080838360005b83811015611a39578082015181840152602081019050611a1e565b50505050905090810190601f168015611a665780820380516001836020036101000a031916815260200191505b50868103835289818151815260200191508051906020019080838360005b83811015611a9f578082015181840152602081019050611a84565b50505050905090810190601f168015611acc5780820380516001836020036101000a031916815260200191505b50868103825287818151815260200191508051906020019080838360005b83811015611b05578082015181840152602081019050611aea565b50505050905090810190601f168015611b325780820380516001836020036101000a031916815260200191505b509c5050505050505050505050505060405180910390a16001915050979650505050505050565b60015481565b60007f7a2588edf7b8917cf4e7cab7d381581f854c67d797618425f069c21d775f9137848484604051808473ffffffffffffffffffffffffffffffffffffffff1673ffffffffffffffffffffffffffffffffffffffff1681526020018373ffffffffffffffffffffffffffffffffffffffff1673ffffffffffffffffffffffffffffffffffffffff16815260200180602001828103825283818151815260200191508051906020019080838360005b83811015611c29578082015181840152602081019050611c0e565b50505050905090810190601f168015611c565780820380516001836020036101000a031916815260200191505b5094505050505060405180910390a1600190509392505050565b600660205280600052604060002060009150905080600001549080600101908060020190806003019080600401908060050160009054906101000a900473ffffffffffffffffffffffffffffffffffffffff169080600601908060070160009054906101000a900460ff16905088565b600080611ceb61346a565b600560008573ffffffffffffffffffffffffffffffffffffffff1673ffffffffffffffffffffffffffffffffffffffff16815260200190815260200160002060000160009054906101000a900473ffffffffffffffffffffffffffffffffffffffff169250600560008573ffffffffffffffffffffffffffffffffffffffff1673ffffffffffffffffffffffffffffffffffffffff168152602001908152602001600020600101549150600560008573ffffffffffffffffffffffffffffffffffffffff1673ffffffffffffffffffffffffffffffffffffffff1681526020019081526020016000206002018054600181600116156101000203166002900480601f016020809104026020016040519081016040528092919081815260200182805460018160011615610100020316600290048015611e6b5780601f10611e4057610100808354040283529160200191611e6b565b820191906000526020600020905b815481529060010190602001808311611e4e57829003601f168201915b505050505090509193909250565b60045481565b611e8761346a565b611e8f61346a565b611e9761346a565b6000611ea161346a565b611ea961346a565b866000602060ff16111515611ebd57600080fd5b60066000826000191660001916815260200190815260200160002060070160009054906101000a900460ff161515611ef457600080fd5b6006600089600019166000191681526020019081526020016000206001018054600181600116156101000203166002900480601f016020809104026020016040519081016040528092919081815260200182805460018160011615610100020316600290048015611fa65780601f10611f7b57610100808354040283529160200191611fa6565b820191906000526020600020905b815481529060010190602001808311611f8957829003601f168201915b505050505096506006600089600019166000191681526020019081526020016000206002018054600181600116156101000203166002900480601f01602080910402602001604051908101604052809291908181526020018280546001816001161561010002031660029004801561205f5780601f106120345761010080835404028352916020019161205f565b820191906000526020600020905b81548152906001019060200180831161204257829003601f168201915b505050505095506006600089600019166000191681526020019081526020016000206003018054600181600116156101000203166002900480601f0160208091040260200160405190810160405280929190818152602001828054600181600116156101000203166002900480156121185780601f106120ed57610100808354040283529160200191612118565b820191906000526020600020905b8154815290600101906020018083116120fb57829003601f168201915b5050505050945060066000896000191660001916815260200190815260200160002060050160009054906101000a900473ffffffffffffffffffffffffffffffffffffffff1693506006600089600019166000191681526020019081526020016000206004018054600181600116156101000203166002900480601f0160208091040260200160405190810160405280929190818152602001828054600181600116156101000203166002900480156122125780601f106121e757610100808354040283529160200191612212565b820191906000526020600020905b8154815290600101906020018083116121f557829003601f168201915b505050505092506006600089600019166000191681526020019081526020016000206006018054600181600116156101000203166002900480601f0160208091040260200160405190810160405280929190818152602001828054600181600116156101000203166002900480156122cb5780601f106122a0576101008083540402835291602001916122cb565b820191906000526020600020905b8154815290600101906020018083116122ae57829003601f168201915b505050505091505091939550919395565b60008060008060006122ec61346a565b86600760008273ffffffffffffffffffffffffffffffffffffffff1673ffffffffffffffffffffffffffffffffffffffff16815260200190815260200160002060050160009054906101000a900460ff16151561234857600080fd5b600760008973ffffffffffffffffffffffffffffffffffffffff1673ffffffffffffffffffffffffffffffffffffffff168152602001908152602001600020600001549650600760008973ffffffffffffffffffffffffffffffffffffffff1673ffffffffffffffffffffffffffffffffffffffff16815260200190815260200160002060020160009054906101000a900473ffffffffffffffffffffffffffffffffffffffff169550600760008973ffffffffffffffffffffffffffffffffffffffff1673ffffffffffffffffffffffffffffffffffffffff16815260200190815260200160002060020160149054906101000a900460ff169450600760008973ffffffffffffffffffffffffffffffffffffffff1673ffffffffffffffffffffffffffffffffffffffff16815260200190815260200160002060020160159054906101000a900460ff169350600760008973ffffffffffffffffffffffffffffffffffffffff1673ffffffffffffffffffffffffffffffffffffffff168152602001908152602001600020600301549250600760008973ffffffffffffffffffffffffffffffffffffffff1673ffffffffffffffffffffffffffffffffffffffff1681526020019081526020016000206004018054600181600116156101000203166002900480601f0160208091040260200160405190810160405280929190818152602001828054600181600116156101000203166002900480156125b15780601f10612586576101008083540402835291602001916125b1565b820191906000526020600020905b81548152906001019060200180831161259457829003601f168201915b505050505091505091939550919395565b6000806125cd61346a565b83600860008273ffffffffffffffffffffffffffffffffffffffff1673ffffffffffffffffffffffffffffffffffffffff16815260200190815260200160002060030160009054906101000a900460ff16151561262957600080fd5b600860008673ffffffffffffffffffffffffffffffffffffffff1673ffffffffffffffffffffffffffffffffffffffff16815260200190815260200160002060000160009054906101000a900473ffffffffffffffffffffffffffffffffffffffff169350600860008673ffffffffffffffffffffffffffffffffffffffff1673ffffffffffffffffffffffffffffffffffffffff168152602001908152602001600020600101549250600860008673ffffffffffffffffffffffffffffffffffffffff1673ffffffffffffffffffffffffffffffffffffffff1681526020019081526020016000206002018054600181600116156101000203166002900480601f0160208091040260200160405190810160405280929190818152602001828054600181600116156101000203166002900480156127a95780601f1061277e576101008083540402835291602001916127a9565b820191906000526020600020905b81548152906001019060200180831161278c57829003601f168201915b50505050509150509193909250565b60008060009054906101000a900473ffffffffffffffffffffffffffffffffffffffff1673ffffffffffffffffffffffffffffffffffffffff163373ffffffffffffffffffffffffffffffffffffffff1614151561281557600080fd5b600073ffffffffffffffffffffffffffffffffffffffff168473ffffffffffffffffffffffffffffffffffffffff161415151561285157600080fd5b6080604051908101604052808573ffffffffffffffffffffffffffffffffffffffff1681526020018460001916815260200183815260200160011515815250600560008673ffffffffffffffffffffffffffffffffffffffff1673ffffffffffffffffffffffffffffffffffffffff16815260200190815260200160002060008201518160000160006101000a81548173ffffffffffffffffffffffffffffffffffffffff021916908373ffffffffffffffffffffffffffffffffffffffff1602179055506020820151816001019060001916905560408201518160020190805190602001906129429291906133ea565b5060608201518160030160006101000a81548160ff0219169083151502179055509050506002600081548092919060010191905055507f96c4fc31a3e383225857c821101daf68248108597da8ddde0ac2b431eb9a16be8484604051808373ffffffffffffffffffffffffffffffffffffffff1673ffffffffffffffffffffffffffffffffffffffff16815260200182600019166000191681526020019250505060405180910390a1600190509392505050565b60076020528060005260406000206000915090508060000154908060010160009054906101000a900473ffffffffffffffffffffffffffffffffffffffff16908060020160009054906101000a900473ffffffffffffffffffffffffffffffffffffffff16908060020160149054906101000a900460ff16908060020160159054906101000a900460ff169080600301549080600401908060050160009054906101000a900460ff16905088565b60035481565b6000809054906101000a900473ffffffffffffffffffffffffffffffffffffffff1681565b60086020528060005260406000206000915090508060000160009054906101000a900473ffffffffffffffffffffffffffffffffffffffff169080600101549080600201908060030160009054906101000a900460ff16905084565b60025481565b60008060009054906101000a900473ffffffffffffffffffffffffffffffffffffffff1673ffffffffffffffffffffffffffffffffffffffff163373ffffffffffffffffffffffffffffffffffffffff16141515612b8e57600080fd5b600073ffffffffffffffffffffffffffffffffffffffff168473ffffffffffffffffffffffffffffffffffffffff1614151515612bca57600080fd5b6080604051908101604052808573ffffffffffffffffffffffffffffffffffffffff1681526020018460001916815260200183815260200160011515815250600860008673ffffffffffffffffffffffffffffffffffffffff1673ffffffffffffffffffffffffffffffffffffffff16815260200190815260200160002060008201518160000160006101000a81548173ffffffffffffffffffffffffffffffffffffffff021916908373ffffffffffffffffffffffffffffffffffffffff160217905550602082015181600101906000191690556040820151816002019080519060200190612cbb9291906133ea565b5060608201518160030160006101000a81548160ff0219169083151502179055509050506004600081548092919060010191905055507f61d5717c48ae438da6dd13ddac5769e03d3962a340cfee120dc8cea6dba62431848484604051808473ffffffffffffffffffffffffffffffffffffffff1673ffffffffffffffffffffffffffffffffffffffff168152602001836000191660001916815260200180602001828103825283818151815260200191508051906020019080838360005b83811015612d95578082015181840152602081019050612d7a565b50505050905090810190601f168015612dc25780820380516001836020036101000a031916815260200191505b5094505050505060405180910390a1600190509392505050565b600960205281600052604060002081815481101515612df757fe5b90600052602060002090600802016000915091505080600001549080600101908060020190806003019080600401908060050160009054906101000a900473ffffffffffffffffffffffffffffffffffffffff169080600601908060070160009054906101000a900460ff16905088565b6000846000602060ff16111515612e7e57600080fd5b60066000826000191660001916815260200190815260200160002060070160009054906101000a900460ff161515612eb557600080fd5b600073ffffffffffffffffffffffffffffffffffffffff163373ffffffffffffffffffffffffffffffffffffffff1614151515612ef157600080fd5b61010060405190810160405280876000191681526020018673ffffffffffffffffffffffffffffffffffffffff16815260200160066000896000191660001916815260200190815260200160002060050160009054906101000a900473ffffffffffffffffffffffffffffffffffffffff1673ffffffffffffffffffffffffffffffffffffffff1681526020016000151581526020016000151581526020018560001916815260200184815260200160011515815250600760008773ffffffffffffffffffffffffffffffffffffffff1673ffffffffffffffffffffffffffffffffffffffff1681526020019081526020016000206000820151816000019060001916905560208201518160010160006101000a81548173ffffffffffffffffffffffffffffffffffffffff021916908373ffffffffffffffffffffffffffffffffffffffff16021790555060408201518160020160006101000a81548173ffffffffffffffffffffffffffffffffffffffff021916908373ffffffffffffffffffffffffffffffffffffffff16021790555060608201518160020160146101000a81548160ff02191690831515021790555060808201518160020160156101000a81548160ff02191690831515021790555060a0820151816003019060001916905560c08201518160040190805190602001906130f09291906133ea565b5060e08201518160050160006101000a81548160ff0219169083151502179055509050506003600081548092919060010191905055507f02b8bc7594a15178afdf8df26db51a0051ac497db65815f5bdba4294ebd207198660066000896000191660001916815260200190815260200160002060050160009054906101000a900473ffffffffffffffffffffffffffffffffffffffff168787876040518086600019166000191681526020018573ffffffffffffffffffffffffffffffffffffffff1673ffffffffffffffffffffffffffffffffffffffff1681526020018473ffffffffffffffffffffffffffffffffffffffff1673ffffffffffffffffffffffffffffffffffffffff168152602001836000191660001916815260200180602001828103825283818151815260200191508051906020019080838360005b8381101561324a57808201518184015260208101905061322f565b50505050905090810190601f1680156132775780820380516001836020036101000a031916815260200191505b50965050505050505060405180910390a16001915050949350505050565b6000809054906101000a900473ffffffffffffffffffffffffffffffffffffffff1673ffffffffffffffffffffffffffffffffffffffff163373ffffffffffffffffffffffffffffffffffffffff161415156132f057600080fd5b600073ffffffffffffffffffffffffffffffffffffffff168173ffffffffffffffffffffffffffffffffffffffff161415151561332c57600080fd5b8073ffffffffffffffffffffffffffffffffffffffff166000809054906101000a900473ffffffffffffffffffffffffffffffffffffffff1673ffffffffffffffffffffffffffffffffffffffff167f8be0079c531659141344cd1fd0a4f28419497f9722a3daafe3b4186f6b6457e060405160405180910390a3806000806101000a81548173ffffffffffffffffffffffffffffffffffffffff021916908373ffffffffffffffffffffffffffffffffffffffff16021790555050565b828054600181600116156101000203166002900490600052602060002090601f016020900481019282601f1061342b57805160ff1916838001178555613459565b82800160010185558215613459579182015b8281111561345857825182559160200191906001019061343d565b5b509050613466919061347e565b5090565b602060405190810160405280600081525090565b6134a091905b8082111561349c576000816000905550600101613484565b5090565b905600a165627a7a723058200ad5fae79b26534ae3f61874378deb475f0d260cfff83876e3d6c236f001d11c0029",
  "source": "pragma solidity ^0.4.18;\n\n/* Based on: https://github.com/enigmampc/ */\n\nimport \"./DataStoreInterface.sol\";\nimport \"./BaseDataStore.sol\";\n\n\ncontract DataStore is BaseDataStore, DataStoreInterface {\n\n    function registerDataSet(\n        bytes32 _id,\n        string name,\n        string location,\n        string category,\n        string hashMeta,\n        address _dataOwner,\n        string digest\n    )\n    public\n    uniqueDataSet(_id) // providerExist (?)\n    returns (bool success)\n    {\n        require(_dataOwner != address(0));\n        dataStore[_id] = DataSet({\n            _id: _id,\n            name: name,\n            category: category,\n            location: location,\n            hashMeta: hashMeta,\n            owner: _dataOwner,\n            isDataSet: true,\n            digest: digest\n        });\n\n        totalData++;\n        NewDataSet(_id, name, location, category, hashMeta, _dataOwner, digest);\n        success = true;\n    }\n\n    function registerProvider(address _providerAddress, bytes32 name, string pubKey)\n    public\n    onlyOwner\n    returns (bool success)\n    {\n        require(_providerAddress != address(0));\n        providers[_providerAddress] = Provider({\n            owner: _providerAddress,\n            name: name,\n            isProvider: true,\n            pubKey: pubKey\n        });\n\n        totalProviders++;\n        NewProvider(_providerAddress, name);\n        success = true;\n    }\n\n    function registerProcessor(address _processorAddress, bytes32 name, string pubKey)\n    public\n    onlyOwner\n    returns (bool success)\n    {\n        require(_processorAddress != address(0));\n        processors[_processorAddress] = Processor({\n            owner: _processorAddress,\n            name: name,\n            isProcessor: true,\n            pubKey: pubKey\n        });\n\n        totalProcessors++;\n        NewProcessor(_processorAddress, name, pubKey);\n        success = true;\n    }\n\n    function requestProcessing(bytes32 _dataSetID, address _subscriber, bytes32 queryID, string pubKey)\n    public\n    dataSetExist(_dataSetID)\n    returns (bool success)\n    {\n        require(msg.sender != address(0));\n\n        requests[_subscriber] = Request({\n            dataSetID: _dataSetID,\n            subscriber: _subscriber,\n            provider: dataStore[_dataSetID].owner,\n            hasProof: false,\n            processed: false,\n            queryID: queryID,\n            pubKey: pubKey,\n            isRequest: true\n        });\n\n        totalRequests++;\n        NewRequest(_dataSetID, dataStore[_dataSetID].owner, _subscriber, queryID, pubKey);\n        success = true;\n    }\n\n    function notifyProcessor(address _providerAddress, address _subscriber, string cipher)\n    public\n    returns (bool success)\n    {\n        Process(_providerAddress, _subscriber, cipher);\n        success = true;\n    }\n}\n",
  "sourcePath": "/Users/laxmana/workspace/mhmd/data_sharing/lib/blockchain/contracts/DataStore.sol",
  "compiler": {
    "name": "solc",
    "version": "0.4.19+commit.c4cbbb05.Emscripten.clang"
  },
  "schemaVersion": "2.0.0",
  "updatedAt": "2018-06-28T12:49:04.195Z"
}