{
  "contractName": "DataStore",
  "abi": [
    {
      "constant": true,
      "inputs": [
        {
          "name": "_processor",
          "type": "address"
        }
      ],
      "name": "getProcessor",
      "outputs": [
        {
          "name": "",
          "type": "bytes32"
        },
        {
          "name": "",
          "type": "string"
        }
      ],
      "payable": false,
      "stateMutability": "view",
      "type": "function"
    },
    {
      "constant": true,
      "inputs": [
        {
          "name": "",
          "type": "bytes32"
        }
      ],
      "name": "dataStore",
      "outputs": [
        {
          "name": "name",
          "type": "bytes32"
        },
        {
          "name": "location",
          "type": "string"
        },
        {
          "name": "category",
          "type": "bytes32"
        },
        {
          "name": "metaHash",
          "type": "bytes32"
        },
        {
          "name": "controller",
          "type": "address"
        },
        {
          "name": "isDataSet",
          "type": "bool"
        }
      ],
      "payable": false,
      "stateMutability": "view",
      "type": "function"
    },
    {
      "constant": true,
      "inputs": [],
      "name": "totalProcessors",
      "outputs": [
        {
          "name": "",
          "type": "uint256"
        }
      ],
      "payable": false,
      "stateMutability": "view",
      "type": "function"
    },
    {
      "constant": true,
      "inputs": [
        {
          "name": "_dataSetID",
          "type": "bytes32"
        }
      ],
      "name": "getDataSetInfo",
      "outputs": [
        {
          "name": "",
          "type": "bytes32"
        },
        {
          "name": "",
          "type": "string"
        },
        {
          "name": "",
          "type": "bytes32"
        },
        {
          "name": "",
          "type": "bytes32"
        },
        {
          "name": "",
          "type": "address"
        }
      ],
      "payable": false,
      "stateMutability": "view",
      "type": "function"
    },
    {
      "constant": false,
      "inputs": [],
      "name": "renounceOwnership",
      "outputs": [],
      "payable": false,
      "stateMutability": "nonpayable",
      "type": "function"
    },
    {
      "constant": true,
      "inputs": [
        {
          "name": "_requestID",
          "type": "bytes32"
        }
      ],
      "name": "getRequestInfo",
      "outputs": [
        {
          "name": "",
          "type": "bytes32"
        },
        {
          "name": "",
          "type": "address"
        },
        {
          "name": "",
          "type": "bool"
        },
        {
          "name": "",
          "type": "bool"
        },
        {
          "name": "",
          "type": "bytes32"
        },
        {
          "name": "",
          "type": "string"
        }
      ],
      "payable": false,
      "stateMutability": "view",
      "type": "function"
    },
    {
      "constant": true,
      "inputs": [
        {
          "name": "_controller",
          "type": "address"
        }
      ],
      "name": "getController",
      "outputs": [
        {
          "name": "",
          "type": "bytes32"
        },
        {
          "name": "",
          "type": "string"
        }
      ],
      "payable": false,
      "stateMutability": "view",
      "type": "function"
    },
    {
      "constant": true,
      "inputs": [],
      "name": "totalControllers",
      "outputs": [
        {
          "name": "",
          "type": "uint256"
        }
      ],
      "payable": false,
      "stateMutability": "view",
      "type": "function"
    },
    {
      "constant": true,
      "inputs": [],
      "name": "totalRequests",
      "outputs": [
        {
          "name": "",
          "type": "uint256"
        }
      ],
      "payable": false,
      "stateMutability": "view",
      "type": "function"
    },
    {
      "constant": true,
      "inputs": [],
      "name": "owner",
      "outputs": [
        {
          "name": "",
          "type": "address"
        }
      ],
      "payable": false,
      "stateMutability": "view",
      "type": "function"
    },
    {
      "constant": true,
      "inputs": [
        {
          "name": "",
          "type": "address"
        }
      ],
      "name": "processors",
      "outputs": [
        {
          "name": "name",
          "type": "bytes32"
        },
        {
          "name": "pubKey",
          "type": "string"
        },
        {
          "name": "isProcessor",
          "type": "bool"
        }
      ],
      "payable": false,
      "stateMutability": "view",
      "type": "function"
    },
    {
      "constant": true,
      "inputs": [
        {
          "name": "",
          "type": "bytes32"
        }
      ],
      "name": "requests",
      "outputs": [
        {
          "name": "dataSetID",
          "type": "bytes32"
        },
        {
          "name": "requestor",
          "type": "address"
        },
        {
          "name": "hasProof",
          "type": "bool"
        },
        {
          "name": "processed",
          "type": "bool"
        },
        {
          "name": "algorithmID",
          "type": "bytes32"
        },
        {
          "name": "pubKey",
          "type": "string"
        },
        {
          "name": "isRequest",
          "type": "bool"
        }
      ],
      "payable": false,
      "stateMutability": "view",
      "type": "function"
    },
    {
      "constant": true,
      "inputs": [],
      "name": "totalDataSets",
      "outputs": [
        {
          "name": "",
          "type": "uint256"
        }
      ],
      "payable": false,
      "stateMutability": "view",
      "type": "function"
    },
    {
      "constant": true,
      "inputs": [
        {
          "name": "",
          "type": "address"
        }
      ],
      "name": "controllers",
      "outputs": [
        {
          "name": "name",
          "type": "bytes32"
        },
        {
          "name": "pubKey",
          "type": "string"
        },
        {
          "name": "isController",
          "type": "bool"
        }
      ],
      "payable": false,
      "stateMutability": "view",
      "type": "function"
    },
    {
      "constant": false,
      "inputs": [
        {
          "name": "_newOwner",
          "type": "address"
        }
      ],
      "name": "transferOwnership",
      "outputs": [],
      "payable": false,
      "stateMutability": "nonpayable",
      "type": "function"
    },
    {
      "anonymous": false,
      "inputs": [
        {
          "indexed": false,
          "name": "hash",
          "type": "bytes32"
        },
        {
          "indexed": false,
          "name": "name",
          "type": "bytes32"
        },
        {
          "indexed": false,
          "name": "location",
          "type": "string"
        },
        {
          "indexed": false,
          "name": "category",
          "type": "bytes32"
        },
        {
          "indexed": false,
          "name": "metaHash",
          "type": "bytes32"
        },
        {
          "indexed": false,
          "name": "controller",
          "type": "address"
        }
      ],
      "name": "NewDataSet",
      "type": "event"
    },
    {
      "anonymous": false,
      "inputs": [
        {
          "indexed": false,
          "name": "_controllerAddress",
          "type": "address"
        },
        {
          "indexed": false,
          "name": "name",
          "type": "bytes32"
        },
        {
          "indexed": false,
          "name": "pubKey",
          "type": "string"
        }
      ],
      "name": "NewController",
      "type": "event"
    },
    {
      "anonymous": false,
      "inputs": [
        {
          "indexed": false,
          "name": "_processorAddress",
          "type": "address"
        },
        {
          "indexed": false,
          "name": "name",
          "type": "bytes32"
        },
        {
          "indexed": false,
          "name": "pubKey",
          "type": "string"
        }
      ],
      "name": "NewProcessor",
      "type": "event"
    },
    {
      "anonymous": false,
      "inputs": [
        {
          "indexed": false,
          "name": "_requestID",
          "type": "bytes32"
        },
        {
          "indexed": false,
          "name": "_dataSetID",
          "type": "bytes32"
        },
        {
          "indexed": false,
          "name": "_requestor",
          "type": "address"
        },
        {
          "indexed": false,
          "name": "algorithmID",
          "type": "bytes32"
        },
        {
          "indexed": false,
          "name": "pubKey",
          "type": "string"
        }
      ],
      "name": "NewRequest",
      "type": "event"
    },
    {
      "anonymous": false,
      "inputs": [
        {
          "indexed": false,
          "name": "_processorAddress",
          "type": "address"
        },
        {
          "indexed": false,
          "name": "_requestID",
          "type": "bytes32"
        },
        {
          "indexed": false,
          "name": "encryptedKey",
          "type": "string"
        }
      ],
      "name": "Process",
      "type": "event"
    },
    {
      "anonymous": false,
      "inputs": [
        {
          "indexed": true,
          "name": "previousOwner",
          "type": "address"
        }
      ],
      "name": "OwnershipRenounced",
      "type": "event"
    },
    {
      "anonymous": false,
      "inputs": [
        {
          "indexed": true,
          "name": "previousOwner",
          "type": "address"
        },
        {
          "indexed": true,
          "name": "newOwner",
          "type": "address"
        }
      ],
      "name": "OwnershipTransferred",
      "type": "event"
    },
    {
      "constant": false,
      "inputs": [
        {
          "name": "hash",
          "type": "bytes32"
        },
        {
          "name": "name",
          "type": "bytes32"
        },
        {
          "name": "location",
          "type": "string"
        },
        {
          "name": "category",
          "type": "bytes32"
        },
        {
          "name": "metaHash",
          "type": "bytes32"
        }
      ],
      "name": "registerDataSet",
      "outputs": [
        {
          "name": "",
          "type": "bool"
        }
      ],
      "payable": false,
      "stateMutability": "nonpayable",
      "type": "function"
    },
    {
      "constant": false,
      "inputs": [
        {
          "name": "_controllerAddress",
          "type": "address"
        },
        {
          "name": "name",
          "type": "bytes32"
        },
        {
          "name": "pubKey",
          "type": "string"
        }
      ],
      "name": "registerController",
      "outputs": [
        {
          "name": "",
          "type": "bool"
        }
      ],
      "payable": false,
      "stateMutability": "nonpayable",
      "type": "function"
    },
    {
      "constant": false,
      "inputs": [
        {
          "name": "_processorAddress",
          "type": "address"
        },
        {
          "name": "name",
          "type": "bytes32"
        },
        {
          "name": "pubKey",
          "type": "string"
        }
      ],
      "name": "registerProcessor",
      "outputs": [
        {
          "name": "",
          "type": "bool"
        }
      ],
      "payable": false,
      "stateMutability": "nonpayable",
      "type": "function"
    },
    {
      "constant": false,
      "inputs": [
        {
          "name": "_dataSetID",
          "type": "bytes32"
        },
        {
          "name": "algorithmID",
          "type": "bytes32"
        },
        {
          "name": "pubKey",
          "type": "string"
        }
      ],
      "name": "requestProcessing",
      "outputs": [
        {
          "name": "",
          "type": "bool"
        }
      ],
      "payable": false,
      "stateMutability": "nonpayable",
      "type": "function"
    },
    {
      "constant": false,
      "inputs": [
        {
          "name": "_processorAddress",
          "type": "address"
        },
        {
          "name": "_requestID",
          "type": "bytes32"
        },
        {
          "name": "encryptedKey",
          "type": "string"
        }
      ],
      "name": "notifyProcessor",
      "outputs": [
        {
          "name": "",
          "type": "bool"
        }
      ],
      "payable": false,
      "stateMutability": "nonpayable",
      "type": "function"
    }
  ],
  "bytecode": "0x6080604052336000806101000a81548173ffffffffffffffffffffffffffffffffffffffff021916908373ffffffffffffffffffffffffffffffffffffffff1602179055506000600181905550600060028190555060006003819055506000600481905550612e79806100736000396000f300608060405260043610610112576000357c0100000000000000000000000000000000000000000000000000000000900463ffffffff1680630aa7876514610117578063239aec4d146101c6578063278cbcdc14610275578063401ac1cc146103405780634ccc948a1461045557806353050883146104805780636aab55461461058a578063715018a61461064357806382d67e5a1461065a57806388c662aa1461076b5780638a85c5be146108365780638aea61dc146108615780638da5cb5b1461088c578063965e064a146108e35780639ca239e9146109b95780639d86698514610a68578063cc66af6514610b84578063d4ed56b814610baf578063da8c229e14610c4c578063f2fde38b14610d22575b600080fd5b34801561012357600080fd5b506101ac600480360381019080803573ffffffffffffffffffffffffffffffffffffffff1690602001909291908035600019169060200190929190803590602001908201803590602001908080601f0160208091040260200160405190810160405280939291908181526020018383808284378201915050505050509192919290505050610d65565b604051808215151515815260200191505060405180910390f35b3480156101d257600080fd5b5061025b600480360381019080803573ffffffffffffffffffffffffffffffffffffffff1690602001909291908035600019169060200190929190803590602001908201803590602001908080601f0160208091040260200160405190810160405280939291908181526020018383808284378201915050505050509192919290505050611017565b604051808215151515815260200191505060405180910390f35b34801561028157600080fd5b506102b6600480360381019080803573ffffffffffffffffffffffffffffffffffffffff1690602001909291905050506112ca565b60405180836000191660001916815260200180602001828103825283818151815260200191508051906020019080838360005b838110156103045780820151818401526020810190506102e9565b50505050905090810190601f1680156103315780820380516001836020036101000a031916815260200191505b50935050505060405180910390f35b34801561034c57600080fd5b5061036f60048036038101908080356000191690602001909291905050506114be565b60405180876000191660001916815260200180602001866000191660001916815260200185600019166000191681526020018473ffffffffffffffffffffffffffffffffffffffff1673ffffffffffffffffffffffffffffffffffffffff16815260200183151515158152602001828103825287818151815260200191508051906020019080838360005b838110156104155780820151818401526020810190506103fa565b50505050905090810190601f1680156104425780820380516001836020036101000a031916815260200191505b5097505050505050505060405180910390f35b34801561046157600080fd5b5061046a6115bf565b6040518082815260200191505060405180910390f35b34801561048c57600080fd5b506104af60048036038101908080356000191690602001909291905050506115c5565b60405180866000191660001916815260200180602001856000191660001916815260200184600019166000191681526020018373ffffffffffffffffffffffffffffffffffffffff1673ffffffffffffffffffffffffffffffffffffffff168152602001828103825286818151815260200191508051906020019080838360005b8381101561054b578082015181840152602081019050610530565b50505050905090810190601f1680156105785780820380516001836020036101000a031916815260200191505b50965050505050505060405180910390f35b34801561059657600080fd5b5061062960048036038101908080356000191690602001909291908035600019169060200190929190803590602001908201803590602001908080601f016020809104026020016040519081016040528093929190818152602001838380828437820191505050505050919291929080356000191690602001909291908035600019169060200190929190505050611855565b604051808215151515815260200191505060405180910390f35b34801561064f57600080fd5b50610658611bca565b005b34801561066657600080fd5b506106896004803603810190808035600019169060200190929190505050611ccc565b6040518087600019166000191681526020018673ffffffffffffffffffffffffffffffffffffffff1673ffffffffffffffffffffffffffffffffffffffff1681526020018515151515815260200184151515158152602001836000191660001916815260200180602001828103825283818151815260200191508051906020019080838360005b8381101561072b578082015181840152602081019050610710565b50505050905090810190601f1680156107585780820380516001836020036101000a031916815260200191505b5097505050505050505060405180910390f35b34801561077757600080fd5b506107ac600480360381019080803573ffffffffffffffffffffffffffffffffffffffff169060200190929190505050611f98565b60405180836000191660001916815260200180602001828103825283818151815260200191508051906020019080838360005b838110156107fa5780820151818401526020810190506107df565b50505050905090810190601f1680156108275780820380516001836020036101000a031916815260200191505b50935050505060405180910390f35b34801561084257600080fd5b5061084b61218c565b6040518082815260200191505060405180910390f35b34801561086d57600080fd5b50610876612192565b6040518082815260200191505060405180910390f35b34801561089857600080fd5b506108a1612198565b604051808273ffffffffffffffffffffffffffffffffffffffff1673ffffffffffffffffffffffffffffffffffffffff16815260200191505060405180910390f35b3480156108ef57600080fd5b50610924600480360381019080803573ffffffffffffffffffffffffffffffffffffffff1690602001909291905050506121bd565b6040518084600019166000191681526020018060200183151515158152602001828103825284818151815260200191508051906020019080838360005b8381101561097c578082015181840152602081019050610961565b50505050905090810190601f1680156109a95780820380516001836020036101000a031916815260200191505b5094505050505060405180910390f35b3480156109c557600080fd5b50610a4e600480360381019080803573ffffffffffffffffffffffffffffffffffffffff1690602001909291908035600019169060200190929190803590602001908201803590602001908080601f016020809104026020016040519081016040528093929190818152602001838380828437820191505050505050919291929050505061228c565b604051808215151515815260200191505060405180910390f35b348015610a7457600080fd5b50610a97600480360381019080803560001916906020019092919050505061253f565b6040518088600019166000191681526020018773ffffffffffffffffffffffffffffffffffffffff1673ffffffffffffffffffffffffffffffffffffffff168152602001861515151581526020018515151515815260200184600019166000191681526020018060200183151515158152602001828103825284818151815260200191508051906020019080838360005b83811015610b43578082015181840152602081019050610b28565b50505050905090810190601f168015610b705780820380516001836020036101000a031916815260200191505b509850505050505050505060405180910390f35b348015610b9057600080fd5b50610b99612660565b6040518082815260200191505060405180910390f35b348015610bbb57600080fd5b50610c3260048036038101908080356000191690602001909291908035600019169060200190929190803590602001908201803590602001908080601f0160208091040260200160405190810160405280939291908181526020018383808284378201915050505050509192919290505050612666565b604051808215151515815260200191505060405180910390f35b348015610c5857600080fd5b50610c8d600480360381019080803573ffffffffffffffffffffffffffffffffffffffff169060200190929190505050612b78565b6040518084600019166000191681526020018060200183151515158152602001828103825284818151815260200191508051906020019080838360005b83811015610ce5578082015181840152602081019050610cca565b50505050905090810190601f168015610d125780820380516001836020036101000a031916815260200191505b5094505050505060405180910390f35b348015610d2e57600080fd5b50610d63600480360381019080803573ffffffffffffffffffffffffffffffffffffffff169060200190929190505050612c47565b005b600033600073ffffffffffffffffffffffffffffffffffffffff168173ffffffffffffffffffffffffffffffffffffffff1614151515610e0d576040517f08c379a000000000000000000000000000000000000000000000000000000000815260040180806020018281038252600f8152602001807f496e76616c69642061646472657373000000000000000000000000000000000081525060200191505060405180910390fd5b836000602060ff16111515610e8a576040517f08c379a000000000000000000000000000000000000000000000000000000000815260040180806020018281038252601f8152602001807f456d7074792072657175657374206964206973206e6f7420616c6c6f7765640081525060200191505060405180910390fd5b60076000826000191660001916815260200190815260200160002060040160009054906101000a900460ff161515610f2a576040517f08c379a00000000000000000000000000000000000000000000000000000000081526004018080602001828103825260118152602001807f52657175657374206e6f7420666f756e6400000000000000000000000000000081525060200191505060405180910390fd5b7f68a26cc28bcae833357b16024502d2c6f09385632462c0a415f1dd9a2be399da868686604051808473ffffffffffffffffffffffffffffffffffffffff1673ffffffffffffffffffffffffffffffffffffffff168152602001836000191660001916815260200180602001828103825283818151815260200191508051906020019080838360005b83811015610fce578082015181840152602081019050610fb3565b50505050905090810190601f168015610ffb5780820380516001836020036101000a031916815260200191505b5094505050505060405180910390a16001925050509392505050565b60008060009054906101000a900473ffffffffffffffffffffffffffffffffffffffff1673ffffffffffffffffffffffffffffffffffffffff163373ffffffffffffffffffffffffffffffffffffffff1614151561107457600080fd5b83600073ffffffffffffffffffffffffffffffffffffffff168173ffffffffffffffffffffffffffffffffffffffff161415151561111a576040517f08c379a000000000000000000000000000000000000000000000000000000000815260040180806020018281038252600f8152602001807f496e76616c69642061646472657373000000000000000000000000000000000081525060200191505060405180910390fd5b6060604051908101604052808560001916815260200184815260200160011515815250600560008773ffffffffffffffffffffffffffffffffffffffff1673ffffffffffffffffffffffffffffffffffffffff1681526020019081526020016000206000820151816000019060001916905560208201518160010190805190602001906111a8929190612da8565b5060408201518160020160006101000a81548160ff0219169083151502179055509050506002600081548092919060010191905055507f1f6d40e97137f9a88a2f44815933ca578388843627e4a92975c7ab648b4131de858585604051808473ffffffffffffffffffffffffffffffffffffffff1673ffffffffffffffffffffffffffffffffffffffff168152602001836000191660001916815260200180602001828103825283818151815260200191508051906020019080838360005b83811015611282578082015181840152602081019050611267565b50505050905090810190601f1680156112af5780820380516001836020036101000a031916815260200191505b5094505050505060405180910390a160019150509392505050565b6000606082600860008273ffffffffffffffffffffffffffffffffffffffff1673ffffffffffffffffffffffffffffffffffffffff16815260200190815260200160002060020160009054906101000a900460ff161515611393576040517f08c379a00000000000000000000000000000000000000000000000000000000081526004018080602001828103825260138152602001807f50726f636573736f72206e6f7420666f756e640000000000000000000000000081525060200191505060405180910390fd5b600860008573ffffffffffffffffffffffffffffffffffffffff1673ffffffffffffffffffffffffffffffffffffffff16815260200190815260200160002060000154600860008673ffffffffffffffffffffffffffffffffffffffff1673ffffffffffffffffffffffffffffffffffffffff168152602001908152602001600020600101808054600181600116156101000203166002900480601f0160208091040260200160405190810160405280929190818152602001828054600181600116156101000203166002900480156114ad5780601f10611482576101008083540402835291602001916114ad565b820191906000526020600020905b81548152906001019060200180831161149057829003601f168201915b505050505090509250925050915091565b6006602052806000526040600020600091509050806000015490806001018054600181600116156101000203166002900480601f0160208091040260200160405190810160405280929190818152602001828054600181600116156101000203166002900480156115705780601f1061154557610100808354040283529160200191611570565b820191906000526020600020905b81548152906001019060200180831161155357829003601f168201915b5050505050908060020154908060030154908060040160009054906101000a900473ffffffffffffffffffffffffffffffffffffffff16908060040160149054906101000a900460ff16905086565b60045481565b600060606000806000856000602060ff1611151561164b576040517f08c379a000000000000000000000000000000000000000000000000000000000815260040180806020018281038252601f8152602001807f456d7074792064617461736574206964206973206e6f7420616c6c6f7765640081525060200191505060405180910390fd5b60066000826000191660001916815260200190815260200160002060040160149054906101000a900460ff1615156116eb576040517f08c379a00000000000000000000000000000000000000000000000000000000081526004018080602001828103825260118152602001807f44617461736574206e6f7420666f756e6400000000000000000000000000000081525060200191505060405180910390fd5b60066000886000191660001916815260200190815260200160002060000154600660008960001916600019168152602001908152602001600020600101600660008a6000191660001916815260200190815260200160002060020154600660008b6000191660001916815260200190815260200160002060030154600660008c6000191660001916815260200190815260200160002060040160009054906101000a900473ffffffffffffffffffffffffffffffffffffffff16838054600181600116156101000203166002900480601f01602080910402602001604051908101604052809291908181526020018280546001816001161561010002031660029004801561183a5780601f1061180f5761010080835404028352916020019161183a565b820191906000526020600020905b81548152906001019060200180831161181d57829003601f168201915b50505050509350955095509550955095505091939590929450565b6000856000602060ff161115156118d4576040517f08c379a000000000000000000000000000000000000000000000000000000000815260040180806020018281038252601f8152602001807f456d7074792064617461736574206964206973206e6f7420616c6c6f7765640081525060200191505060405180910390fd5b60066000826000191660001916815260200190815260200160002060040160149054906101000a900460ff16151515611975576040517f08c379a00000000000000000000000000000000000000000000000000000000081526004018080602001828103825260188152602001807f4461746173657420616c7265616479206465636c61726564000000000000000081525060200191505060405180910390fd5b60c0604051908101604052808760001916815260200186815260200185600019168152602001846000191681526020013373ffffffffffffffffffffffffffffffffffffffff16815260200160011515815250600660008960001916600019168152602001908152602001600020600082015181600001906000191690556020820151816001019080519060200190611a0f929190612da8565b50604082015181600201906000191690556060820151816003019060001916905560808201518160040160006101000a81548173ffffffffffffffffffffffffffffffffffffffff021916908373ffffffffffffffffffffffffffffffffffffffff16021790555060a08201518160040160146101000a81548160ff0219169083151502179055509050506001600081548092919060010191905055507f3c36f9336ba9b445c6a38e5cc5c1e1ca9951661b46b572c2f1230f5f6405bac1878787878733604051808760001916600019168152602001866000191660001916815260200180602001856000191660001916815260200184600019166000191681526020018373ffffffffffffffffffffffffffffffffffffffff1673ffffffffffffffffffffffffffffffffffffffff168152602001828103825286818151815260200191508051906020019080838360005b83811015611b7d578082015181840152602081019050611b62565b50505050905090810190601f168015611baa5780820380516001836020036101000a031916815260200191505b5097505050505050505060405180910390a1600191505095945050505050565b6000809054906101000a900473ffffffffffffffffffffffffffffffffffffffff1673ffffffffffffffffffffffffffffffffffffffff163373ffffffffffffffffffffffffffffffffffffffff16141515611c2557600080fd5b6000809054906101000a900473ffffffffffffffffffffffffffffffffffffffff1673ffffffffffffffffffffffffffffffffffffffff167ff8df31144d9c2f0f6b59d69b8b98abd5459d07f2742c4df920b25aae33c6482060405160405180910390a260008060006101000a81548173ffffffffffffffffffffffffffffffffffffffff021916908373ffffffffffffffffffffffffffffffffffffffff160217905550565b60008060008060006060866000602060ff16111515611d53576040517f08c379a000000000000000000000000000000000000000000000000000000000815260040180806020018281038252601f8152602001807f456d7074792072657175657374206964206973206e6f7420616c6c6f7765640081525060200191505060405180910390fd5b60076000826000191660001916815260200190815260200160002060040160009054906101000a900460ff161515611df3576040517f08c379a00000000000000000000000000000000000000000000000000000000081526004018080602001828103825260118152602001807f52657175657374206e6f7420666f756e6400000000000000000000000000000081525060200191505060405180910390fd5b60076000896000191660001916815260200190815260200160002060000154600760008a6000191660001916815260200190815260200160002060010160009054906101000a900473ffffffffffffffffffffffffffffffffffffffff16600760008b6000191660001916815260200190815260200160002060010160149054906101000a900460ff16600760008c6000191660001916815260200190815260200160002060010160159054906101000a900460ff16600760008d6000191660001916815260200190815260200160002060020154600760008e60001916600019168152602001908152602001600020600301808054600181600116156101000203166002900480601f016020809104026020016040519081016040528092919081815260200182805460018160011615610100020316600290048015611f7b5780601f10611f5057610100808354040283529160200191611f7b565b820191906000526020600020905b815481529060010190602001808311611f5e57829003601f168201915b505050505090509650965096509650965096505091939550919395565b6000606082600560008273ffffffffffffffffffffffffffffffffffffffff1673ffffffffffffffffffffffffffffffffffffffff16815260200190815260200160002060020160009054906101000a900460ff161515612061576040517f08c379a00000000000000000000000000000000000000000000000000000000081526004018080602001828103825260148152602001807f436f6e74726f6c6c6572206e6f7420666f756e6400000000000000000000000081525060200191505060405180910390fd5b600560008573ffffffffffffffffffffffffffffffffffffffff1673ffffffffffffffffffffffffffffffffffffffff16815260200190815260200160002060000154600560008673ffffffffffffffffffffffffffffffffffffffff1673ffffffffffffffffffffffffffffffffffffffff168152602001908152602001600020600101808054600181600116156101000203166002900480601f01602080910402602001604051908101604052809291908181526020018280546001816001161561010002031660029004801561217b5780601f106121505761010080835404028352916020019161217b565b820191906000526020600020905b81548152906001019060200180831161215e57829003601f168201915b505050505090509250925050915091565b60025481565b60035481565b6000809054906101000a900473ffffffffffffffffffffffffffffffffffffffff1681565b6008602052806000526040600020600091509050806000015490806001018054600181600116156101000203166002900480601f01602080910402602001604051908101604052809291908181526020018280546001816001161561010002031660029004801561226f5780601f106122445761010080835404028352916020019161226f565b820191906000526020600020905b81548152906001019060200180831161225257829003601f168201915b5050505050908060020160009054906101000a900460ff16905083565b60008060009054906101000a900473ffffffffffffffffffffffffffffffffffffffff1673ffffffffffffffffffffffffffffffffffffffff163373ffffffffffffffffffffffffffffffffffffffff161415156122e957600080fd5b83600073ffffffffffffffffffffffffffffffffffffffff168173ffffffffffffffffffffffffffffffffffffffff161415151561238f576040517f08c379a000000000000000000000000000000000000000000000000000000000815260040180806020018281038252600f8152602001807f496e76616c69642061646472657373000000000000000000000000000000000081525060200191505060405180910390fd5b6060604051908101604052808560001916815260200184815260200160011515815250600860008773ffffffffffffffffffffffffffffffffffffffff1673ffffffffffffffffffffffffffffffffffffffff16815260200190815260200160002060008201518160000190600019169055602082015181600101908051906020019061241d929190612da8565b5060408201518160020160006101000a81548160ff0219169083151502179055509050506004600081548092919060010191905055507f61d5717c48ae438da6dd13ddac5769e03d3962a340cfee120dc8cea6dba62431858585604051808473ffffffffffffffffffffffffffffffffffffffff1673ffffffffffffffffffffffffffffffffffffffff168152602001836000191660001916815260200180602001828103825283818151815260200191508051906020019080838360005b838110156124f75780820151818401526020810190506124dc565b50505050905090810190601f1680156125245780820380516001836020036101000a031916815260200191505b5094505050505060405180910390a160019150509392505050565b60076020528060005260406000206000915090508060000154908060010160009054906101000a900473ffffffffffffffffffffffffffffffffffffffff16908060010160149054906101000a900460ff16908060010160159054906101000a900460ff1690806002015490806003018054600181600116156101000203166002900480601f0160208091040260200160405190810160405280929190818152602001828054600181600116156101000203166002900480156126435780601f1061261857610100808354040283529160200191612643565b820191906000526020600020905b81548152906001019060200180831161262657829003601f168201915b5050505050908060040160009054906101000a900460ff16905087565b60015481565b600080846000602060ff161115156126e6576040517f08c379a000000000000000000000000000000000000000000000000000000000815260040180806020018281038252601f8152602001807f456d7074792064617461736574206964206973206e6f7420616c6c6f7765640081525060200191505060405180910390fd5b60066000826000191660001916815260200190815260200160002060040160149054906101000a900460ff161515612786576040517f08c379a00000000000000000000000000000000000000000000000000000000081526004018080602001828103825260118152602001807f44617461736574206e6f7420666f756e6400000000000000000000000000000081525060200191505060405180910390fd5b33600073ffffffffffffffffffffffffffffffffffffffff168173ffffffffffffffffffffffffffffffffffffffff161415151561282c576040517f08c379a000000000000000000000000000000000000000000000000000000000815260040180806020018281038252600f8152602001807f496e76616c69642061646472657373000000000000000000000000000000000081525060200191505060405180910390fd5b86336040516020018083600019166000191681526020018273ffffffffffffffffffffffffffffffffffffffff1673ffffffffffffffffffffffffffffffffffffffff166c01000000000000000000000000028152601401925050506040516020818303038152906040526040518082805190602001908083835b6020831015156128cc57805182526020820191506020810190506020830392506128a7565b6001836020036101000a0380198251168184511680821785525050505050509050019150506040518091039020925060e060405190810160405280886000191681526020013373ffffffffffffffffffffffffffffffffffffffff16815260200160001515815260200160001515815260200187600019168152602001868152602001600115158152506007600085600019166000191681526020019081526020016000206000820151816000019060001916905560208201518160010160006101000a81548173ffffffffffffffffffffffffffffffffffffffff021916908373ffffffffffffffffffffffffffffffffffffffff16021790555060408201518160010160146101000a81548160ff02191690831515021790555060608201518160010160156101000a81548160ff0219169083151502179055506080820151816002019060001916905560a0820151816003019080519060200190612a34929190612da8565b5060c08201518160040160006101000a81548160ff0219169083151502179055509050506003600081548092919060010191905055507fd15f4e1744a4ecfd16cc24126449d2821501f516c952122874c43f6a1b14fc7b838833898960405180866000191660001916815260200185600019166000191681526020018473ffffffffffffffffffffffffffffffffffffffff1673ffffffffffffffffffffffffffffffffffffffff168152602001836000191660001916815260200180602001828103825283818151815260200191508051906020019080838360005b83811015612b2c578082015181840152602081019050612b11565b50505050905090810190601f168015612b595780820380516001836020036101000a031916815260200191505b50965050505050505060405180910390a1600193505050509392505050565b6005602052806000526040600020600091509050806000015490806001018054600181600116156101000203166002900480601f016020809104026020016040519081016040528092919081815260200182805460018160011615610100020316600290048015612c2a5780601f10612bff57610100808354040283529160200191612c2a565b820191906000526020600020905b815481529060010190602001808311612c0d57829003601f168201915b5050505050908060020160009054906101000a900460ff16905083565b6000809054906101000a900473ffffffffffffffffffffffffffffffffffffffff1673ffffffffffffffffffffffffffffffffffffffff163373ffffffffffffffffffffffffffffffffffffffff16141515612ca257600080fd5b612cab81612cae565b50565b600073ffffffffffffffffffffffffffffffffffffffff168173ffffffffffffffffffffffffffffffffffffffff1614151515612cea57600080fd5b8073ffffffffffffffffffffffffffffffffffffffff166000809054906101000a900473ffffffffffffffffffffffffffffffffffffffff1673ffffffffffffffffffffffffffffffffffffffff167f8be0079c531659141344cd1fd0a4f28419497f9722a3daafe3b4186f6b6457e060405160405180910390a3806000806101000a81548173ffffffffffffffffffffffffffffffffffffffff021916908373ffffffffffffffffffffffffffffffffffffffff16021790555050565b828054600181600116156101000203166002900490600052602060002090601f016020900481019282601f10612de957805160ff1916838001178555612e17565b82800160010185558215612e17579182015b82811115612e16578251825591602001919060010190612dfb565b5b509050612e249190612e28565b5090565b612e4a91905b80821115612e46576000816000905550600101612e2e565b5090565b905600a165627a7a72305820f3653a48c9774c1a9c4e833763c8fcf98ea0f824cdce80764458c0fe375d3c310029",
  "source": "pragma solidity ^0.4.24;\n\n/* Based on: https://github.com/enigmampc/ */\n\nimport \"./DataStoreInterface.sol\";\nimport \"./BaseDataStore.sol\";\n\n\ncontract DataStore is BaseDataStore, DataStoreInterface {\n\n    function registerDataSet(\n        bytes32 hash,\n        bytes32 name,\n        string location,\n        bytes32 category,\n        bytes32 metaHash\n    )\n    public\n    uniqueDataSet(hash)\n    // onlyController(msg.sender)\n    returns (bool)\n    {\n        dataStore[hash] = DataSet({\n            name: name,\n            category: category,\n            location: location,\n            metaHash: metaHash,\n            controller: msg.sender,\n            isDataSet: true\n        });\n\n        totalDataSets++;\n        emit NewDataSet(hash, name, location, category, metaHash, msg.sender);\n        return true;\n    }\n\n    function registerController(address _controllerAddress, bytes32 name, string pubKey)\n    public\n    onlyOwner\n    isValidAddress(_controllerAddress)\n    returns (bool)\n    {\n        controllers[_controllerAddress] = Controller({\n            name: name,\n            pubKey: pubKey,\n            isController: true\n        });\n\n        totalControllers++;\n        emit NewController(_controllerAddress, name, pubKey);\n        return true;\n    }\n\n    function registerProcessor(address _processorAddress, bytes32 name, string pubKey)\n    public\n    onlyOwner\n    isValidAddress(_processorAddress)\n    returns (bool)\n    {\n        processors[_processorAddress] = Processor({\n            name: name,\n            pubKey: pubKey,\n            isProcessor: true\n        });\n\n        totalProcessors++;\n        emit NewProcessor(_processorAddress, name, pubKey);\n        return true;\n    }\n\n    function requestProcessing(bytes32 _dataSetID, bytes32 algorithmID, string pubKey)\n    public\n    dataSetExist(_dataSetID)\n    isValidAddress(msg.sender)\n    returns (bool)\n    {\n        bytes32 _requestID = keccak256(abi.encodePacked(_dataSetID, msg.sender));\n        requests[_requestID] = Request({\n            dataSetID: _dataSetID,\n            requestor: msg.sender,\n            hasProof: false,\n            processed: false,\n            algorithmID: algorithmID,\n            pubKey: pubKey,\n            isRequest: true\n        });\n\n        totalRequests++;\n        emit NewRequest(_requestID, _dataSetID, msg.sender, algorithmID, pubKey);\n        return true;\n    }\n\n    function notifyProcessor(address _processorAddress, bytes32 _requestID, string encryptedKey)\n    public\n    isValidAddress(msg.sender)\n    requestExist(_requestID)\n    returns (bool)\n    {\n        emit Process(_processorAddress, _requestID, encryptedKey);\n        return true;\n    }\n}\n",
  "sourcePath": "/Users/laxmana/workspace/mhmd/data_sharing/lib/blockchain/contracts/DataStore.sol",
  "compiler": {
    "name": "solc",
    "version": "0.4.24+commit.e67f0147.Emscripten.clang"
  },
  "schemaVersion": "2.0.0",
  "updatedAt": "2018-07-05T13:27:58.906Z"
}